S00B00005049412E737265633F
S11300000C943E000C945B000C945B000C945B001D
S11300100C945B000C945B000C945B000C945B00F0
S11300200C945B000C945B000C945B000C945B00E0
S11300300C945B000C945B000C94A0020C945B0089
S11300400C945B000C945B000C945B000C945B00C0
S11300500C945B000C9434030C945B000C945B00D4
S11300600C945B000C945B009F00B500CB00E10096
S1130070F7000D01230139014F01650111241FBE51
S1130080CFEFD8E0DEBFCDBF11E0A0E0B1E0EEEEEF
S1130090F9E002C005900D92A230B107D9F721E032
S11300A0A2E0B1E001C01D92AC30B207E1F70E94BA
S11300B065020C94F5040C940000ECE7F0E08081F8
S11300C0806480838081806280838081877F808355
S11300D080818460808380818D7F80838081816042
S11300E08083EAE7F0E08081806280838081886099
S11300F0808380818460808380818260808380812A
S1130100816080830895EAE7F0E0808180688083DD
S113011080818064808308958AB18C6F8AB984B1A8
S1130120816084B984B18E6184B908958A3091055F
S113013008F0E0C0FC01EC5CFF4F0C94E0048BB1D0
S113014084608BB98BB188608BB98BB180618BB9BA
S11301508BB180628BB98BB180648BB98BB18068B1
S11301608BB985B18E7F85B908958BB18B7F8BB99F
S11301708BB188608BB98BB180618BB98BB18F7D6A
S11301808BB98BB18F7B8BB98BB18F778BB985B1E1
S11301908E7F85B908958BB184608BB98BB18860EB
S11301A08BB98BB18F7E8BB98BB180628BB98BB1DC
S11301B080648BB98BB18F778BB985B1816085B938
S11301C008958BB184608BB98BB188608BB98BB186
S11301D080618BB98BB180628BB98BB18F7B8BB90A
S11301E08BB18F778BB985B1816085B908958BB157
S11301F08B7F8BB98BB188608BB98BB180618BB9E4
S11302008BB18F7D8BB98BB18F7B8BB98BB18068B0
S11302108BB985B1816085B908958BB184608BB940
S11302208BB1877F8BB98BB180618BB98BB18062C5
S11302308BB98BB18F7B8BB98BB180688BB985B14E
S1130240816085B908958BB18B7F8BB98BB1877F22
S11302508BB98BB180618BB98BB180628BB98BB157
S113026080648BB98BB180688BB985B1816085B9A5
S113027008958BB184608BB98BB188608BB98BB1D5
S113028080618BB98BB18F7D8BB98BB18F7B8BB92F
S11302908BB18F778BB985B1816085B908958BB1A6
S11302A084608BB98BB188608BB98BB180618BB959
S11302B08BB180628BB98BB180648BB98BB1806850
S11302C08BB985B1816085B908958BB184608BB990
S11302D08BB188608BB98BB180618BB98BB18F7D09
S11302E08BB98BB18F7B8BB98BB180688BB985B19E
S11302F0816085B9089587B18E7F87B987B18D7F75
S113030087B987B18B7F87B90895EF92FF920F93D6
S11303101F93CF93DF93EC017C01F694E794F6945A
S1130320E794F694E7949701A5ECB0E20E94E60402
S11303308C01129502950F7001271F7001270093FD
S11303400B0185B18F7E85B985B1886085B985B18A
S1130350846085B985B1826085B980910B0190E094
S11303600E9496008FE891E00197F1F700C0000029
S113037085B1806185B985B1877F85B985B1846090
S113038085B985B1826085B928EE33E0029FC0014A
S1130390039F900D129F900D11249E01281B390B71
S11303A03695279536952795ABE7B4E10E94E60488
S11303B09695879580930A0190E00E9496008FE8B5
S11303C091E00197F1F700C0000085B1806185B923
S11303D085B1886085B985B18B7F85B985B1826027
S11303E085B99E013695279536952795ABE7B4E1F7
S11303F00E94E6049C013695279544E6429FC0017D
S1130400439F900D11249E01281B390BADECBCECCD
S11304100E94E60496958795969587959695879577
S11304208093090190E00E9496008FE891E0019783
S1130430F1F700C0000085B1806185B985B188609D
S113044085B985B1846085B985B18D7F85B99E01F3
S1130450ADECBCEC0E94E60496958795969587953D
S1130460969587959C01220F331F880F991F880F3B
S1130470991F880F991F820F931F9E01281B390B08
S113048020930801822F90E00E9496008FE891E06B
S11304900197F1F700C0000085B1806185B985B18D
S11304A0886085B985B1846085B985B1826085B974
S11304B08FE891E00197F1F700C00000DF91CF9140
S11304C01F910F91FF90EF900895F8940E948C0073
S11304D00E947B010E9444030E945D0078940E9464
S11304E083008091050181110AC08091070190E089
S11304F00E94850185E38A95F1F70000F2CF8130EF
S113050051F48091060190E00E94850185E38A956B
S1130510F1F70000E6CF823051F48091000190E0C1
S11305200E94850185E38A95F1F70000DACF8330D4
S1130530C1F680910201909103010E948501D1CFFF
S11305401F920F920FB60F9211242F933F934F9344
S11305505F936F937F938F939F93AF93BF93EF9327
S1130560FF93309B0AC0319908C0329906C080912C
S113057005018F5F8093050166C08091050181119B
S113058011C0809107018F3950F48F5F8093070168
S11305908FE891E00197F1F700C0000054C0109279
S11305A0070151C08130C1F430994DC0319B4BC01B
S11305B0329949C0809106018F5F809306018FE8CC
S11305C091E00197F1F700C0000080910601803AA4
S11305D0D0F11092060137C08230C9F4309933C08B
S11305E0319931C0329B2FC080910001815080939A
S11305F000018FE891E00197F1F700C000008091BD
S113060000018F3F01F58FE9809300011CC0833006
S1130610B1F46091040170E080E090E00E94A603D0
S11306202DE93AEB4AE750E40E944B040E945E0332
S11306300E947503709303016093020104C0843027
S113064010F010920501FF91EF91BF91AF919F912E
S11306508F917F916F915F914F913F912F910F9067
S11306600FBE0F901F9018951F920F920FB60F9206
S113067011248F9380917900809304018F910F90BE
S11306800FBE0F901F90189584B58E7F84BD84B5DE
S1130690826084BD85B5877F85BD85B5846085BD51
S11306A085B58D7F85BD85B5816085BD80ED87BDB0
S11306B0EEE6F0E080818260808308950E942C043D
S11306C090F09F3748F4911116F40C94450460E0BF
S11306D070E080E89FE3089526F01B16611D711DEC
S11306E0811D0C94E1030C94FC030E94120488F015
S11306F09F5798F0B92F9927B751B0F0E1F0660FE2
S1130700771F881F991F1AF0BA95C9F714C0B13022
S113071091F00E944404B1E008950C944404672FBE
S1130720782F8827B85F39F0B93FCCF38695779551
S11307306795B395D9F73EF490958095709561953A
S11307407F4F8F4F9F4F0895E89409C097FB3EF465
S113075090958095709561957F4F8F4F9F4F99230A
S1130760A9F0F92F96E9BB279395F6958795779588
S11307706795B795F111F8CFFAF4BB0F11F460FF48
S11307801BC06F5F7F4F8F4F9F4F16C0882311F0A0
S113079096E911C0772321F09EE8872F762F05C0B4
S11307A0662371F096E8862F70E060E02AF09A954F
S11307B0660F771F881FDAF7880F9695879597F944
S11307C00895882371F4772321F09850872B762F8E
S11307D007C0662311F499270DC09051862B70E051
S11307E060E02AF09A95660F771F881FDAF7880F62
S11307F09695879597F908959F3F31F0915020F48D
S1130800879577956795B795880F911D96958795E8
S113081097F9089557FD9058440F551F59F05F3FBD
S113082071F04795880F97FB991F61F09F3F79F00E
S113083087950895121613061406551FF2CF469590
S1130840F1DF08C0161617061806991FF1CF869512
S113085071056105089408950E941204A0F0BEE792
S1130860B91788F4BB279F3860F41616B11D672F9B
S1130870782F8827985FF7CF869577956795B11D70
S113088093959639C8F30895E894BB27662777278C
S1130890CB0197F908950E945E040C94CF040E9442
S11308A0C10438F00E94C80420F0952311F00C9480
S11308B0B8040C94BE0411240C9445040E940A0448
S11308C070F3959FC1F3950F50E0551F629FF0019F
S11308D0729FBB27F00DB11D639FAA27F00DB11DB8
S11308E0AA1F649F6627B00DA11D661F829F222741
S11308F0B00DA11D621F739FB00DA11D621F839FC8
S1130900A00D611D221F749F3327A00D611D231F9D
S1130910849F600D211D822F762F6A2F11249F57EB
S113092050409AF0F1F088234AF0EE0FFF1FBB1FEE
S1130930661F771F881F91505040A9F79E3F5105AD
S113094080F00C94B8040C9445045F3FE4F3983EA3
S1130950D4F3869577956795B795F795E7959F5F57
S1130960C1F7FE2B880F911D9695879597F90895E9
S113097097F99F6780E870E060E008959FEF80EC4E
S1130980089500240A9416161706180609060895F1
S113099000240A9412161306140605060895092E57
S11309A00394000C11F4882352F0BB0F40F4BF2BC6
S11309B011F460FF04C06F5F7F4F8F4F9F4F089506
S11309C0EE0FFF1F0590F491E02D0994A29FB00152
S11309D0B39FC001A39F700D811D1124911DB29F6F
S11109E0700D811D1124911D0895F894FFCF10
S10509EE9F0064
S9030000FC
